:020000040800F2
:1000000048040020D5000008890200088702000883
:1000100000000000000000000000000000000000E0
:10002000000000000000000000000000810900083E
:10003000000000000000000065030008C10B00087C
:10004000E7000008E70000084D060008E700000888
:10005000E700000841010008E7000008E700000889
:10006000E7000008E7000008E7000008E7000008D4
:10007000E7000008E7000008E7000008E7000008C4
:10008000E7000008E700000800000000E7000008A3
:10009000E7000008E7000008E7000008E7000008A4
:1000A000E7000008E7000008E7000008E700000894
:1000B000E700000800000000E70000080000000062
:1000C0000348854600F02AF800480047390F000829
:1000D000480400200448804704480047FEE7FEE744
:1000E000FEE7FEE7FEE7FEE7C50B0008C1000008DB
:1000F00030B50B46014600202022012409E00D46C0
:10010000D5409D4205D31D469540491B2546954047
:1001100040191546521E002DF1DC30BD064C01255C
:10012000064E05E0E36807CC2B430C3C984710349F
:10013000B442F7D3FFF7C8FF9C100008BC100008BA
:1001400010B5012000F00CF8002802D0012000F0CA
:1001500001F810BD014948617047000000040140EA
:10016000054A01461368002052690B400A4202D03A
:10017000002B00D0012070470004014010B58379A6
:1001800018490268002B26D00B6893430B604A681D
:1001900003689A434A60027952181368046823433B
:1001A00013608A6803689A438A60CA6803689A433E
:1001B000CA604279102A05D051180A6800680243C3
:1001C0000A6010BD8A6803681A438A60CA680068BA
:1001D0000243CA6010BD0079401801689143016074
:1001E00010BD000000040140F0B5002201242346A8
:1001F0000D6893401D409D422AD10D79012D01D0FB
:10020000022D12D1876855000326AE40B7438760A0
:100210004E79AE4085682E43866085889D438580F3
:1002200085888B7993401D4385800668550003239C
:10023000AB409E4306600E790768AE403E430660C1
:10024000C6689E43C660CB79AB40C5682B43C3608C
:10025000521C102ACBD3F0BD4B07DB0E9A40C908C5
:1002600010B589000818016A0F249C40A14301625F
:10027000016A1143016210BD0246128A00200A423F
:1002800000D001207047FEE77047000030B583784A
:1002900001210278002B15D094080E4BA400E4181D
:1002A00023689207D50EFF22AA4093434278920713
:1002B000120EAA401A4322600078C006C00E814088
:1002C000054804E0D006C00E81400348803001603C
:1002D00030BD000000E400E000E100E004498A15C0
:1002E0000028086801D0104300E090430860704780
:1002F000007000400748026804210A430260026857
:1003000002231A430260044802690A43026130BFB3
:10031000704700000070004000ED00E0094B1A68D3
:100320009208920002431A600748036904221343AB
:100330000361012904D020BF016991430161704725
:1003400030BFF9E70070004000ED00E0044A0029EA
:10035000516801D0014300E08143516070470000C3
:100360000070004070470000044A0029516901D024
:10037000014300E0814351617047000000100240DA
:10038000044A0029D16901D0014300E08143D161D1
:100390007047000000100240044A0029916901D012
:1003A000014300E08143916170470000001002406A
:1003B0000122054912040028086A01D0104300E018
:1003C000904308627047000000100240F8B5334DBA
:1003D000044668680C21324E084003D0042801D03E
:1003E000082801D0266012E0696868680122890245
:1003F00012040F0F1040BF1C00281CD0E86A010730
:10040000090F3046491CFFF773FE78432060686887
:10041000244B0006000F1A5C20680146D140616041
:100420006A685205520F9A5CD140A1602A6BD205CE
:1004300005D41D4A09E01D4847432760E7E76A687D
:10044000520401D44A0800E08A08E2602A6B53068D
:10045000174A03D4164B1233236100E022612B6B41
:10046000DB0601D4666100E060612B6B9B070FD057
:10047000296B8907890F01290CD0286B8007800F11
:10048000022809D0286BC043800700D1A661F8BDBF
:10049000A161F8BDA061F8BDA261F8BD00100240E5
:1004A00000127A0018000020809FD50000093D004E
:1004B00000800000034600200A495A090CD0012A96
:1004C0000CD0022A0CD0496BDA06D20E01239340DD
:1004D0000B4200D0012070470968F5E7096AF3E78D
:1004E000496AF1E70010024005490028486A02D035
:1004F0000122104301E040084000486270470000BC
:100500000010024001220549D2030028086A01D0E8
:10051000104300E090430862704700000010024062
:1005200002490A6A02430A62704700000010024052
:1005300018B500220092114ACA2353625323536212
:100540000029916802D00143916012E081439160DB
:10055000000A01239B03D168009C0140641C0094A5
:100560009C4201D00029F6D0D168014201D100207F
:1005700000E00120FF21516218BD0000002800406A
:1005800001090A2200075143000F4018C0B270470A
:10059000002103E0491C0A38C9B2C0B20A28F9D2C6
:1005A0000907090E0843704700098021084380B2FB
:1005B000C2430348C3680B401A43C260704700003F
:1005C0000028004018B5002000900C48C16849067A
:1005D00012D40021C943C16040220314C168009CA9
:1005E0001140641C00949C4201D00029F6D0C068E0
:1005F000400601D4002018BD012018BD002800408D
:100600000248C16880229143C160704700280040C1
:1006100070B50D4900220B6804210B4C0B40403C87
:10062000A168860C0546F540ED0B1D400140E368CE
:10063000294300090340002903D01804000C00D00E
:100640000122104670BD00004028004010B5012472
:1006500024032046FFF7DCFF002808D0012000F02B
:100660001FF92046FFF7A0FF6001FFF773FD10BDE3
:1006700030B50D4ACA2353625323536204250446FE
:10068000094BAC43403328400029916804D02143F2
:1006900091601968014303E0A143916019688143A7
:1006A0001960FF20506230BD0028004070B505463B
:1006B00000260F4CCA20606253206062FFF782FF61
:1006C000002811D0A06840218843A060A068296854
:1006D0000843A060A86820612069A988090408432C
:1006E0002061FFF78DFF0126FF206062304670BD5C
:1006F0000028004070B500211F4E0028B068144645
:1007000020D0400635D52078FFF73AFF207BFFF751
:1007100037FF2078A578000405436078E17800026F
:10072000090408430543207B00060543A0680543F0
:1007300060680543CA20706253207062F561FF2033
:10074000706270BD400600D4E1702078FFF720FF92
:1007500005046078FFF71CFF00020543A078FFF74F
:1007600017FF0543E07800040543207BFFF710FFE7
:10077000DAE7E170CAE7000000280040F8B5024659
:100780000027224D0C46002A0978AA68384605D071
:1007900052062FD50846FFF7F3FE2CE0520600D490
:1007A000E0700846FFF7F4FE06046078FFF7F0FEFD
:1007B00000020643A078FFF7EBFE0643E078000452
:1007C0000643CA20686253206862FFF7FBFE0028D8
:1007D0000CD00F4806402E60FFF712FFA868800675
:1007E00003D400F017F8002800D00127FF2068622A
:1007F0003846F8BDE0702078A6780004064360789B
:10080000E178000209040843DAE70000002800400C
:100810007F7F7F0018B5002011490090886880060E
:1008200001D5012018BDCA20486253204862C8681B
:10083000A0229043C86020229302C868009C104008
:10084000641C00949C4201D00028F6D0C868800641
:1008500001D5012000E00020FF224A6218BD0000FF
:10086000002800407CB5044685000B480121405912
:10087000FFF77AFD084960000A39085A0090012004
:100880006946087100208871C871032048710348C7
:100890004059FFF7A9FC7CBD94100008100000200F
:1008A000034A4100515A034A80001058018570479D
:1008B0008A100008100000200449820089588A8AA2
:1008C000034B4000185A42408A82704710000020B3
:1008D0008A10000810B5044A4100515A034A8000AA
:1008E0001058FFF7C9FC10BD801000080C00002054
:1008F000F3B505468700204885B0C0590121FFF7B0
:1009000033FD01210846FFF747FD002668460673C0
:10091000C67319486C001038005B0290174802A992
:10092000C059FFF761FC0698012823D112480A3804
:10093000015D801E005D00F025F80F480E38005B59
:10094000009068460671002D01D0082000E00C20C0
:1009500069464871012568468571FFF70FFC064816
:100960000838015D6846017403214174857404A848
:10097000FFF78CFC07B0F0BD901000080C000020C1
:10098000704700008A07130F10B50F229A408C0899
:100990000549A40061188C6894438C608A6898406B
:1009A00002438A6010BD00000000014008B500202D
:1009B0000090144911200860134841684160416863
:1009C000416041683F221204914341604168052221
:1009D000D2041143416001680122120611430160F3
:1009E00001688901FCD54168890889004160416836
:1009F00002221143416041680907890F0229FAD197
:100A000008BD000000200240001002403EB52F2526
:100A100000246D04012128460294FFF7A5FC032160
:100A20006A4611715171D47110480090694610489E
:100A3000FFF7DAFB69460F48FFF7D6FB69460E4819
:100A4000FFF7D2FB09206946C006FFF7CDFB6946D8
:100A50000A48FFF7C9FB00212846FFF785FC012162
:100A60000020FFF745FF30BF3EBD0000FFFF000044
:100A700000080048000C004800140048000400482A
:100A800010B501210802FFF761FCFFF733FC10BD30
:100A900070B58EB0002401200D94FFF71FFC0120DB
:100AA000FFF722FD4120FFF705FD0028FAD00120C5
:100AB0004002FFF735FD0120FFF724FDFFF7AAFEF6
:100AC0002F256D0401212846FFF74EFC03216846BF
:100AD00001714171C4713548009069463448FFF78F
:100AE00083FB69463348FFF77FFB69463248FFF7CF
:100AF0007BFB09206946C006FFF776FB69462F4855
:100B0000FFF772FB00212846FFF72EFC7F200B9099
:100B1000FF2039300C900A940AA8FFF7C7FD00287F
:100B200042D001256D042846FFF714FB0695684660
:100B30000477082141770125857706A8FFF71EFB7A
:100B4000022108A801714471857109A8FFF79EFB75
:100B50006846C472057244720521817231210175A3
:100B6000C807C60D039002AA314604940120FFF77E
:100B7000C1FD01213046FFF7DBFC01210E033046A9
:100B8000FFF776FD08A8C4700570447084700146B4
:100B90000120FFF7F3FD3046FFF706FD012108466F
:100BA000FFF7BCFB0EB070BDFEE70000FFFF0000CA
:100BB00000080048000C00480014004800040048E9
:100BC0007047000010B5144801680122114301600C
:100BD0004168124A114041600168114A11400160A8
:100BE0000168012292049143016041683F2212048E
:100BF00091434160C16A09090901C162016BFF2289
:100C0000543291430163416B49084900416300211B
:100C10008160FFF7CBFE10BD001002400CB8FFF85A
:100C2000FFFFF6FE70B501214C042046FFF79CFB48
:100C300001212046FFF7A4FB0926F6060122022126
:100C40003046FFF709FB012203213046FFF704FB82
:100C50000F490C2503200D60487102200871002403
:100C60008C710120C8713046FFF7BEFA4B2109484C
:100C7000090212C0046044608560C460064C0549E6
:100C8000204600F01DF80121204600F007F870BD55
:100C9000040000202C0000200044004000290168CE
:100CA00002D00122114301E0490849000160704768
:100CB0000246D26900200A4200D00120704700009D
:100CC00070B50446006888B00D46400840002060BA
:100CD0006168032000038143A868084360602168BD
:100CE0002148EA680140686810432A690A431043B2
:100CF0002060A06803210902884369690143A1605B
:100D00006846FFF763FB1948844201D1069800E06A
:100D1000029821680904296801D5490000E089008A
:100D200019225043FFF7E4F905466421FFF7E0F983
:100D300006013009642148432168281A090407D5AF
:100D4000C00064213230FFF7D3F94007400F06E0BE
:100D5000000164213230FFF7CBF90007000F304368
:100D6000A08108B070BD0000F3E9FFFF003801402A
:100D7000C905C90D0185704710B5024A024900F046
:100D800014F810BDC90D00082800002002E008C8B2
:100D9000121F08C1002AFAD170477047002001E0F5
:100DA00001C1121F002AFBD17047F8B516460F4645
:100DB0000446002503E03946B047641C6D1C2078CA
:100DC0000028F8D12846F8BD70B5074D0446C1B2D9
:100DD0002846FFF7CDFF80212846FFF769FF00284E
:100DE000F9D0204670BD000000440040F8B5074629
:100DF0000D460020FFF736FD0120FFF733FD0020F0
:100E0000FFF74EFD0120FFF74BFD494E494C002FE7
:100E10001ED0012F1FD0022F3AD0032F1AD15AE033
:100E20000020FFF749FD002001E03068401C3060E1
:100E30003068A042F9D30020FFF73EFD002001E01A
:100E40003068401C30603068A042F9D37F1CFFB28C
:100E5000AF42E5D364E0002717E00120FFF72CFD47
:100E6000002001E03068401C30603068A042F9D3B7
:100E70000120FFF721FD002001E03068401C3060B8
:100E80003068A042F9D37F1CFFB2AF42E5D347E000
:100E900000271DE00020FFF70FFD0120FFF70CFDEC
:100EA000002001E03068401C30603068A042F9D377
:100EB0000020FFF701FD0120FFF7FEFC002001E00C
:100EC0003068401C30603068A042F9D37F1CFFB20C
:100ED000AF42DFD324E00020FFF7EEFC00271DE047
:100EE0000020FFF7E9FC0120FFF7E6FC002001E00D
:100EF0003068401C30603068A042F9D30020FFF712
:100F0000DBFC0120FFF7D8FC002001E03068401C2A
:100F100030603068A042F9D37F1CFFB2AF42DFD30C
:100F20000020FFF7BDFC0120FFF7BAFCF8BD000070
:100F300000000020FFFF0700FFF774FE27A0FFF767
:100F40001BFF28A0FFF718FF00210846FFF7D0FC81
:100F50000020FFF7BFFC0028FAD101210807FFF7A6
:100F60000FFA0120FFF7BAF90120FFF721FA00205C
:100F7000FFF71EFA0020FFF7ADFC0028FAD0002092
:100F8000FFF7A8FC0028FAD124A0FFF7F5FE042102
:100F90000320FFF72BFFFFF77BFDFFF743FE24A0A5
:100FA000FFF7EAFE04210220FFF720FFFFF72EFDE6
:100FB000FFF738FE23A0FFF7DFFE04210020FFF734
:100FC00015FFFFF75DFDFFF72DFE24A0FFF7D4FE10
:100FD00004210120FFF70AFFFEE7000052455345B8
:100FE000540A0D0050726573732074686520757320
:100FF000657220627574746F6E20746F20656E74F4
:10100000657220696E206C6F7720706F7765722033
:101010007374617465732E0A0D00000053544F50B1
:10102000204D6F646520456E7472792E0A0D0000A4
:10103000536C656570204D6F646520456E747279E0
:101040002E0A0D005354414E444259204D6F6465A1
:1010500020456E7472792E0A0D000000457869747F
:10106000696E6720616C6C206F6620746865206D06
:101070006F64616C69746965732E0A0D000000006D
:101080000100010000000000050000020001000056
:10109000000002000000080000000800BC1000086A
:1010A000000000202C0000008C0D0008E810000853
:1010B0002C0000201C0400009C0D00080000000013
:1010C0000000000000000000000000480008004888
:1010D00000080048000000000102030401020304AC
:0810E0000607080900000000EA
:04000005080000C12E
:00000001FF
