:020000040800F2
:10000000680E0020D5000008C10F0008790D000817
:1000100000000000000000000000000000000000E0
:100020000000000000000000000000000D130008A8
:100030000000000000000000851000089D1300086B
:10004000E7000008E7000008E7000008E7000008F4
:10005000E7000008E7000008E7000008E7000008E4
:10006000E7000008E7000008E7000008E7000008D4
:10007000E7000008E7000008E7000008E7000008C4
:10008000E7000008E700000800000000E7000008A3
:10009000E7000008E7000008E7000008E7000008A4
:1000A000E7000008E7000008E7000008DD18000886
:1000B0001119000800000000E7000008000000001F
:1000C0000348854600F010F900480047A91A0008C7
:1000D000680E00200448804704480047FEE7FEE71A
:1000E000FEE7FEE7FEE7FEE7F1130008C1000008A7
:1000F00030B50B46014600202022012409E00D46C0
:10010000D5409D4205D31D469540491B2546954047
:1001100040191546521E002DF1DC30BD30B50546A4
:100120002A460B4610781C78521C5B1C002801D014
:10013000A042F7D0002C03D0002802D06D1CEFE7BE
:10014000284630BD421C0178401C0029FBD1801A92
:10015000704700000FB400B58DB009900B9010A946
:1001600000200091C0430A9000200C9006480690A1
:10017000064807906A4609A80F9900F083F80DB069
:1001800008BC04B018470000A5020008C50200081A
:10019000FFB5002083B0009050680190916914462B
:1001A000002697680498884705460C9906980843E6
:1001B00005D009E0A169761C049888470546216AA4
:1001C000284688470028F5D1681C03D00198C0074D
:1001D00004D017E00020C04307B0F0BD2068011D27
:1001E0002160006800900DE00198C00704D10098DC
:1001F00005700098401C0090A169761C7F1E049831
:1002000088470546002F1CDD681C1AD00698002878
:100210000FD0E817C00E401941118A000699400915
:10022000511840012A1A0968012090400142DBD18F
:1002300007E00C980028D7D1216A28468847002873
:10024000D2D0E169049888470C98002807D1002E85
:1002500005DD0198C00702D1009800210170A06857
:10026000B84204DD0C98002804D0002F02D00120F1
:10027000C043B1E73046AFE7026813785118016018
:100280001846704710B5D1600449516104491162A4
:1002900000211161114600F041F810BD79020008FB
:1002A0000D0300084268002A08D001680B78491C39
:1002B000002B03D0521E06C0184670470121C160B2
:1002C000881E70474268002A0BD0C3680168002B63
:1002D00007D183688B4204D0491E521C06C00020FF
:1002E00070470020C0437047064C0125064E05E0CC
:1002F000E36807CC2B430C3C98471034B442F7D347
:10030000FFF7E2FE283200084832000810B50F213E
:10031000C0B2490200F09EF910BD0000F3B58DB0E7
:1003200000200A9001200B90002608460C300C4655
:1003300009906269012109989047051E2ED0252D4C
:100340002DD0216A8847002818D0626901210998B8
:100350009047216A88470028F7D1411E62690998B1
:10036000904700E0761CA1690D988847216A88476C
:100370000028F7D1E1690D988847DAE7A1690D985F
:1003800088470746A84201D1761CD2E7E1690D985B
:1003900088477F1C02D10A98002877D049E10027BE
:1003A00062693D463946099890472A280CD162690E
:1003B000012109989047012506E00A214F433F1883
:1003C000303FEBD410200543626901210998904722
:1003D000014630390A2903D29B498F42DEDCECE723
:1003E000E90600D4994F6C280AD04C2810D0682810
:1003F00024D06A282ED074280CD07A280AD00DE098
:1004000062690121099890476C2823D004211CE0DF
:10041000202005436269012109989047A760656023
:1004200065284FD026DC582839D01ADC452849D019
:1004300012DC252834D04128B0D143E06269012183
:1004400009989047682802D008210D43E6E701206B
:10045000C002DEE70220DCE7462833D047282CD153
:1004600030E05B2870D061282CD063286CD06428E1
:1004700023D161E06F284FD009DC662822D067289D
:1004800020D0692826D06E2817D12EE0CDE0702824
:100490004DD073286FD075284ED078280DD154E0F8
:1004A000A1690D9888470546252800D16CE7E169C8
:1004B0000D9888476D1C00D16DE7BAE00A224CE028
:1004C0000A2252E0012023466A46C0430D99C046E5
:1004D000C046A3E02846402108436060A8072346A1
:1004E00001D5002239E000223FE0E80700D020E7F4
:1004F0002068011D21600068290501D5067018E7F4
:10050000290701D5068014E7A90703D5F11706606E
:1005100041600EE706600CE7284640210843606012
:10052000A807234601D5082217E008221DE0484904
:1005300028460840606016E0284640210843606075
:10054000A8072346BCD5B9E715E028464021084353
:100550006060A80707D5234610220120C0430D99EB
:10056000C046C0465AE0234610220120C0430D99E0
:10057000C046C04652E000210C910B460091632812
:1005800002D05B2807D043E0E80601D40120A06038
:10059000012000903CE062690121099890475E28A3
:1005A00005D101200C9001466269099890472169A4
:1005B000002906D10B4601AA8F00491CD3510829F6
:1005C000FADB002835D0216900290ED1C117C90EE8
:1005D00009184A11930001AA9A1849094901411AB8
:1005E0000120136888400343136062690121099860
:1005F00090475D28E5D10C98002808D0002001AB79
:1006000081005A58401CD2435A500828F8DB01ABED
:1006100001202246C0430D99FFF7BAFD00280ADAEF
:10062000401C06D10B98002803D00020C0430FB017
:10063000F0BD0A98FBE7E90702D10A99491C0A9123
:10064000361800200B9074E6CCCCCC0CFFFFFF7F5B
:10065000F1F7FFFF7F2801D9002207E0054B420890
:100660009A5CC00700D112091207120F01209040B6
:1006700008407047E831000870B58C180578401CB8
:100680006B075B0F01D10378401C2A1106D1027859
:10069000401C03E006780E70401C491C5B1EF9D11B
:1006A0002B0705D40023521E0DD40B70491CFAE70A
:1006B0000378401CCB1A921C03E01D780D70491C76
:1006C0005B1C521EF9D5A142D8D3002070BD10B5D5
:1006D00006E003780C78A34201D1012010BD401C34
:1006E0001346521E92B2002BF3D1002010BD000021
:1006F00010B50449044800F0E3FA04490020C8801A
:1007000010BD0000FE0700004C0200200000002089
:10071000F8B5F94C1B20002520812746F74E65814E
:1007200072376089395C304601F0AAF940213046C1
:1007300001F024F90028F9D06089401C80B2608162
:1007400021898842EDD94021ED4800F013FBED4F9F
:1007500003E07D20C00000F0A9FA02233A46EAA196
:10076000EA4800F0D4FD0028F3D04021E44800F02E
:10077000FFFA7D20C00000F099FAE249E34800F05A
:100780009FFAE5803620DC4F208165818E376089B5
:10079000395C304601F074F94021304601F0EEF842
:1007A0000028F9D06089401C80B26081218988428C
:1007B000EDD94021D24800F0DDFA7D27FF0002E0AC
:1007C000384600F073FA0223CE4ACFA1CF4800F09A
:1007D0009EFD0028F4D04021C94800F0C9FA7D20D0
:1007E000C00000F063FAC749C84800F069FAE58024
:1007F0001C20C14F20816581C5376089395C304636
:1008000001F03EF94021304601F0B8F80028F9D057
:100810006089401C80B2608121898842EDD94021E5
:10082000B74800F0A7FA03E07D20C00000F03EFAD0
:100830000223B44AB4A1B54800F069FD0028F3D002
:100840004021AF4800F094FA7D20C00000F02EFA5D
:10085000AC49AE4800F034FAE5801720A64F20815D
:100860006581E2376089395C304601F009F9402141
:10087000304601F083F80028F9D06089401C80B22E
:10088000608121898842EDD940219D4800F072FAAB
:100890009C4F03E07D20C00000F008FA02233A4696
:1008A00099A19A4800F033FD0028F3D040219448E4
:1008B00000F05EFA7D20C00000F0F8F991499348FD
:1008C00000F0FEF9E58019208B4F20816581FA3711
:1008D0006089395C304601F0D3F84021304601F0A0
:1008E0004DF80028F9D06089401C80B260812189D0
:1008F0008842EDD94021824800F03CFA814F03E064
:100900007D20C00000F0D2F902233A467EA17F4844
:1009100000F0FDFC0028F3D04021794800F028FACF
:100920007D20C00000F0C2F97649784800F0C8F98F
:10093000E5800620704F2081658117376089395C1A
:10094000304601F09DF84021304601F017F80028AC
:10095000F9D06089401C80B2608121898842EDD93C
:10096000674F4021384600F005FA03E07D20C000C3
:1009700000F09CF90223634A63A1644800F0C7FCBD
:100980000028F3D04021384600F0F2F97D20C00065
:1009900000F08CF95B495D4800F092F9E580FF2199
:1009A000A5700131384600F0E3F90120E070A07035
:1009B0000B202081658156486189415C304601F0F9
:1009C0005FF84021304600F0D9FF0028F9D0608957
:1009D000401C80B2608121898842ECD97D20C00012
:1009E00000F064F94749494800F06AF9E58003E0FE
:1009F0007D20C00000F05AF90923424A45A143482E
:100A000000F085FC0028F3D00121E57049023C4844
:100A100000F0AEF97D20C00000F048F939493B48AC
:100A200000F04EF9E5801B20394F20816581233786
:100A30006089395C304601F023F84021304600F0EF
:100A40009DFF0028F9D06089401C80B26081218917
:100A50008842EDD940212A4800F08CF9294F03E063
:100A60007D20C00000F022F902233A4626A1274843
:100A700000F04DFC0028F3D04021214800F078F927
:100A80007D20C00000F012F91E49204800F018F93E
:100A9000E5801A201E4F208165813F376089395CCF
:100AA000304600F0EDFF4021304600F067FF00289F
:100AB000F9D06089401C80B2608121898842EDD9DB
:100AC00017482081174F658161893046795C00F0B5
:100AD000D7FF4021304600F051FF0028F9D060894F
:100AE000401C80B2608121898842EDD940210448B0
:100AF00000F040F91CE0000000000020004400402D
:100B000000080048FE0700004F4B00004C02002088
:100B1000140100203A576946692055703A000000D8
:100B20000F040000C01B00087D20C00000F0BEF8CC
:100B30000223574A57A1584800F0E9FB0028F3D098
:100B40004021564800F014F97D20C00000F0AEF8B6
:100B50004F4F5148394600F0B3F8E58039464E48CA
:100B600000F0AEF8E580E570FF21A57001314B483B
:100B700000F0FEF801214902484800F0F9F81D2074
:100B80002081658146486189415C304600F078FFEC
:100B90004021304600F0F2FE0028F9D06089401C68
:100BA00080B2608121898842ECD940213B4800F025
:100BB000E1F803E07D20C00000F078F802233A4617
:100BC00034A1354800F0A3FB0028F3D0402133487E
:100BD00000F0CEF87D20C00000F068F82C492E48C7
:100BE00000F06EF8E5801C202D4F208165811E37B6
:100BF0006089395C304600F043FF4021304600F008
:100C0000BDFE0028F9D06089401C80B26081218936
:100C10008842EDD923482081234F65816089395C62
:100C2000304600F02DFF4021304600F0A7FE00289E
:100C3000F9D06089401C80B2608121898842EDD959
:100C40004021164800F096F87D26F600104F02E08D
:100C5000304600F02BF802233A460EA10E4800F071
:100C600056FB0028F4D040210C4800F081F83046B3
:100C700000F01CF83E463946074800F021F8E580B0
:100C80003146054800F01CF8E5800120F8BD000061
:100C9000FE0700004F4B00004C02002000080048F7
:100CA0006E0100203F020000002C000801B503483F
:100CB0000099C160C1680029FCD108BD0000002076
:100CC0000022134602E08354521C92B28A42FAD3A5
:100CD0007047F0B50022012423460D6893401D4063
:100CE0009D422AD10D79012D01D0022D12D18768A4
:100CF00055000326AE40B74387604E79AE40856805
:100D00002E43866085889D43858085888B799340B6
:100D10001D438580066855000323AB409E43066053
:100D20000E790768AE403E430660C6689E43C660C3
:100D3000CB79AB40C5682B43C360521C102ACBD380
:100D4000F0BD4B07DB0E9A40C90810B589000818A2
:100D5000016A0F249C40A1430162016A11430162B0
:100D600010BD0246128A00200A4200D001207047BE
:100D70000185704781617047FEE70000F8B51620D5
:100D8000834C00272081834D834E67816089295CD5
:100D9000304600F075FE4021304600F0EFFD00289F
:100DA000F9D06089401C80B2608121898842EDD9E8
:100DB0007D20C000FFF77AFF78497948FFF780FF70
:100DC000E7801B20734D2081678117356089295C7E
:100DD000304600F055FE4021304600F0CFFD00289F
:100DE000F9D06089401C80B2608121898842EDD9A8
:100DF00040216C48FFF7BEFF684D03E07D20C00036
:100E0000FFF754FF02232A4667A1654800F07FFAE6
:100E10000028F3D040216348FFF7AAFF7D20C000DF
:100E2000FFF744FF5D495E48FFF74AFFE7801A205D
:100E3000584D2081678133356089295C304600F048
:100E40001FFE4021304600F099FD0028F9D060894E
:100E5000401C80B2608121898842EDD92078012828
:100E600036D16078002819D1504820812546678105
:100E70004F486989415C304600F002FE402130460F
:100E800000F07CFD0028F9D06889401C80B26881A0
:100E900029898842ECD92878012819D1607825461B
:100EA000012832D1414828816F8142486989415CDB
:100EB000304600F0E5FD4021304600F05FFD00289F
:100EC000F9D06889401C80B2688129898842ECD9B0
:100ED0002078002819D160782546012815D133489B
:100EE00028816F8134486989415C304600F0C8FD33
:100EF0004021304600F042FD0028F9D06889401CAE
:100F000080B2688129898842ECD9207861780843C9
:100F100015D126482081294D67816089295C30469A
:100F200000F0AEFD4021304600F028FD0028F9D049
:100F30006089401C80B2608121898842EDD94021BE
:100F40001848FFF717FF7D25ED00144E02E02846F4
:100F5000FFF7ACFE0223324613A1114800F0D7F987
:100F60000028F4D040210F48FFF702FF2846FFF782
:100F70009DFE31460A48FFF7A3FEE7802846FFF7AB
:100F800095FE31460648FFF79BFEE780F8BD00005E
:100F9000000000202001002000440040FE07000067
:100FA0004C020020000800484F4B00000F040000D6
:100FB000D01F0008E0230008F0270008C01B00082D
:100FC000704738B51B216846017000244470012524
:100FD000857000F009F81C21684601704470857026
:100FE00000F002F838BD000030B5837801210278A6
:100FF000002B15D094080E4BA400E4182368920728
:10100000D50EFF22AA40934342789207120EAA40BF
:101010001A4322600078C006C00E8140054804E0F3
:10102000D006C00E814003488030016030BD000012
:1010300000E400E000E100E01CB50121480400F0FC
:1010400023F801200090002069460871C87109202A
:10105000C006FFF73EFE1CBD1CB50121C80400F010
:1010600013F80D20800100900120694608710020CE
:10107000887103224A71C8710148FFF72AFE1CBD1E
:101080000008004870470000044A0029516901D057
:10109000014300E0814351617047000000100240AD
:1010A000044A0029D16901D0014300E08143D161A4
:1010B0007047000000100240044A0029916901D0E5
:1010C000014300E08143916170470000001002403D
:1010D000F8B5334D044668680C21324E084003D001
:1010E000042801D0082801D0266012E069686868E9
:1010F0000122890212040F0F1040BF1C00281CD0CF
:10110000E86A0107090F3046491CFEF7F1FF7843F2
:1011100020606868244B0006000F1A5C20680146B6
:10112000D14061606A685205520F9A5CD140A1605B
:101130002A6BD20505D41D4A09E01D4847432760A4
:10114000E7E76A68520401D44A0800E08A08E260CE
:101150002A6B5306174A03D4164B1233236100E05F
:1011600022612B6BDB0601D4666100E060612B6BB2
:101170009B070FD0296B8907890F01290CD0286B99
:101180008007800F022809D0286BC043800700D158
:10119000A661F8BDA161F8BDA061F8BDA261F8BD6E
:1011A0000010024000127A00F0010020809FD5005C
:1011B00000093D000080000070B50F4C257866786E
:1011C000FFF7A6FA7D200001FFF770FDFFF790FA08
:1011D0000020A070FF2101310848FFF7C9FD2570EC
:1011E0006670FFF7CBFD7D20C000FFF75FFDFFF7C6
:1011F0007FFA0120E07070BD000000200008004868
:10120000F3B50546840023492248091D00590959B0
:1012100083B008430121FFF737FF1E480121001F5B
:101220000059FFF749FF1B486D000838425D001F59
:10123000194E415B3059FFF784FD1648371D801F5A
:10124000425D001F415B3859FFF77BFD11480221C9
:101250001038405B00906846017103214171002104
:1012600081710121C17130596946FFF732FD09488A
:1012700069460E38405B00903859FFF72AFD351F4C
:101280002859049900F0B2FB2859012100F06CFBA9
:1012900005B0F0BD64310008180200207CB50121C2
:1012A00004464D042846FFF7EFFE01212846FFF7CC
:1012B000F7FE0925ED06012202212846FFF741FD30
:1012C000012203212846FFF73CFD04200090022163
:1012D0006846017103214171002181710121C171B1
:1012E00069462846FFF7F5FC082000906946284625
:1012F000FFF7EFFC2146044C204600F077FB01216C
:10130000204600F031FB7CBD004400407047F0B542
:1013100000240D460EE006780F78BE4207D1641C0B
:10132000A4B2401C491C9C4204D10120F0BD002401
:101330002946401C1646521E92B2002EEBD10020C8
:10134000F0BD000013491120086013484168416056
:101350004168416041683F22120491434160416805
:101360000522D20411434160016801221206114393
:10137000016001688901FCD54168890889004160E4
:10138000416802221143416041680907890F02291F
:10139000FAD17047002002400010024010B500F062
:1013A00093FA0F49FF220888F532401C80B208806A
:1013B000904214D30B4802780B48012A04D1828A48
:1013C000FF2301335A408282084A1278012A04D14D
:1013D000828A01235B025A4082820020088010BD6D
:1013E000EE01002002000020000800480300002059
:1013F00010B5144801680122114301604168124A86
:10140000114041600168114A1140016001680122E8
:1014100092049143016041683F221204914341606C
:10142000C16A09090901C162016BFF22543291436B
:101430000163416B49084900416300218160FFF766
:1014400081FF10BD001002400CB8FFF8FFFFF6FE50
:10145000F0B5FF4F85B011233A46FE49FE48FFF72D
:1014600056FFFC4C0125FD4E1E3C00280BD06902A6
:101470003046FFF77DFC29023046FFF779FCA57066
:10148000E570FFF799FEF34911233A461231F2480D
:10149000FFF73DFF00280DD0012149023046FFF73C
:1014A00067FCFF2101313046FFF762FCA570E57053
:1014B000FFF782FEE74910233A462431E648FFF75A
:1014C00026FF00280DD0012149023046FFF750FCCD
:1014D000FF2101313046FFF74BFCA570E570FFF7A7
:1014E0006BFEDC491E233A463531DB48FFF70FFF20
:1014F00000280DD0012149023046FFF739FCFF21B9
:1015000001313046FFF734FCA570E570FFF754FE5B
:10151000D04906233A460E39CF48FFF7F8FE002897
:101520000DD0012149023046FFF722FCFF21013195
:101530003046FFF71DFCA570E570FFF73DFE3A460B
:10154000C7A1C548FFF7C3F8002807D0FFF7D0F8B8
:101550007D20C000FFF7AAFBFFF7CAF80523BC4AAD
:10156000C0A1BD48FFF7D3FE002700280ED00121FF
:1015700049023046FFF7FCFBFF212770013130465E
:10158000FFF7F6FB6770A570FFF7C2F80423B04AB7
:10159000B6A1B148FFF7BBFE00280FD001214902D8
:1015A0003046FFF7E7FB2570FFF7A2F8FFF7E6FBF1
:1015B0007D20C000FFF77AFBFFF79AF80523A44AC5
:1015C000ACA1A548FFF7A3FE00280FD001214902D6
:1015D0003046FFF7CDFB2770FFF78AF8FFF7CEFB09
:1015E0007D20C000FFF762FBFFF782F80423984AD2
:1015F000A2A19948FFF78BFE00280FD0FF210131EF
:101600003046FFF7B7FB6570FFF772F8FFF7B6FBE0
:101610007D20C000FFF74AFBFFF76AF805238C4ADC
:1016200098A18D48FFF773FE00280FD0FF210131EC
:101630003046FFF79DFB6770FFF75AF8FFF79EFBF8
:101640007D20C000FFF732FBFFF752F80723804AE6
:101650008EA18148FFF75BFE00287DD0FFF748F898
:101660000A20208100208B4F8B4D608161892846A4
:10167000795C00F005FA4021284600F07FF9002847
:10168000F9D06089401C80B2608121898842EDD9FF
:1016900040213046FFF76EFB03E07D20C000FFF7DE
:1016A00005FB02236A4A7DA16B48FFF730FE002844
:1016B000F3D07BA16848FEF731FD6A467BA10C3070
:1016C000FEF748FD6846FEF73DFD60816F462D211F
:1016D00002E03954401C608180B20F28F9D34021C8
:1016E0005E48FFF745FB7D20C000FFF7DFFA584951
:1016F0005948FFF7E5FA0026E6801A202081668126
:10170000644861893538415C284600F0B9F94021C8
:10171000284600F033F90028F9D06089401C80B2D7
:10172000608121898842EBD940214C48FFF722FB98
:1017300003E07D20C000FFF7B9FA0223444A57A115
:101740004548FFF7E4FD0028F3D040214348FFF768
:101750000FFB7D20C00000E0B3E0FFF7A7FA3C4993
:101760003D48FFF7ADFAE68019202081668149489F
:1017700061891A38415C284600F082F940212846E8
:1017800000F0FCF80028F9D06089401C80B260812C
:1017900021898842EBD94520C000208166814448D8
:1017A0006189415C284600F06BF94021284600F031
:1017B000E5F80028F9D06089401C80B26081218959
:1017C0008842ECD90E20208166816089395C2846E8
:1017D00000F056F94021284600F0D0F80028F9D052
:1017E0006089401C80B2608121898842EDD9E72060
:1017F0002081304F66816089395C284600F040F9CD
:101800004021284600F0BAF80028F9D06089401C31
:1018100080B2608121898842EDD940210F48FFF7CD
:10182000A9FA7D25ED000A4F01E0FFF73FFA0223F8
:101830003A461AA10848FFF76AFD00282846F4D066
:10184000FFF734FA39460448FFF73AFAE68033E006
:10185000FE0700001E0000204C0200200008004887
:101860005800000072657365740000006C676F6E4D
:10187000000000006C676F66660000006C626F6EAF
:10188000000000006C626F6666000000646973709F
:10189000616C6C00DE010020004400404F4B0000F2
:1018A00069705F69706164647200000025730000F4
:1018B000402E0008693000082846FFF7F7F9FEF7C8
:1018C00017FF05B0F0BD00000348C168002902D031
:1018D000C168491EC16070470000002010B5094C66
:1018E0000749204600F051F8002804D0204600F0B7
:1018F000C3F8054908800549204600F046F810BDA8
:101900000501050000380140EA0100200701070039
:1019100010B50F4C0D49204600F037F8002810D0C4
:10192000204600F0A9F80B490B4B08800B490A88A8
:101930009854521C90B20A4A0880904201D100206B
:1019400008800849204600F020F810BD0501050078
:1019500000440040EC0100204C0200200600002062
:10196000FE070000070107000029016802D00122DC
:10197000114301E049084900016070470246D269FD
:1019800000200A4200D00120704730B50A04130E2F
:101990000122144600258C40012B0ED0022B0ED0C4
:1019A0008368090C2340C0698A401040002B02D094
:1019B000002800D00125284630BD0368F1E74368C0
:1019C000EFE710B50B041C0E01238B40022C02D054
:1019D000032C02D002E0001D00E008300168002A5C
:1019E00001D0194300E09943016010BD30B50446B1
:1019F000006887B00D464008400020606068032101
:101A000009038843A9680143616020681749EA68AF
:101A10000840696811432A69024311432160A068A4
:101A200003210902884369690143A1606846FFF701
:101A30004FFB0F48844201D1069800E002982168CC
:101A40000904296800D54000FEF752FB2A685208B5
:101A50008A4200D8401C2168090404D50107054AC0
:101A6000490F10400843A08107B030BDF3E9FFFFE4
:101A700000380140F0FF0000808CC005C00D7047A9
:101A8000C905C90D0185704702E008C8121F08C1C9
:101A9000002AFAD170477047002001E001C1121FEF
:101AA000002AFBD170470000FFF7C6FAFFF7D4FA0F
:101AB00037487D21C9000068FEF71AFB354900252B
:101AC000401E88420BD83449486134480722C36914
:101AD0001B021B0A4C042343C3618D610A61FFF79B
:101AE00070FAE1212E48490222C0056045600C21B0
:101AF000C56081602A490020FFF782FB2848FFF774
:101B0000CDFB284C012221462748FFF75AFF01222E
:101B100021462648FFF755FF09200121C006FFF79F
:101B200020F9234C2349207160712348FFF7C8F83E
:101B300025706570A570214EE570012709200121EF
:101B4000C006FFF70EF920716179814215D06071EE
:101B5000002812D1012149023046FFF709F9FF217F
:101B600001313046FFF704F925706570E570A77004
:101B7000FEF7CEFD012803D0E770FFF769FCDDE733
:101B8000FF21A57001313046FFF7F2F8F5E70000BC
:101B900000020020FFFFFF0000E000E004ED00E095
:101BA0004C0A0020050105000038014000440040B7
:101BB00000000020FE0700004C0200200008004842
:101BC0003C21444F43545950452068746D6C3E0D80
:101BD0000A3C68746D6C3E0D0A2020203C686561EB
:101BE000643E0D0A2020202020203C7374796C650F
:101BF0003E0D0A202020202020202020626F6479C2
:101C0000207B0D0A0909096261636B67726F756E4B
:101C1000642D636F6C6F723A20626C61636B3B0D75
:101C20000A0909097D0D0A202020202020202020DB
:101C30006831097B0D0A090909636F6C6F723A6F8D
:101C400072616E67653B0D0A090909666F6E742D36
:101C500066616D696C793A4C756369646120436FA4
:101C60006E736F6C653B0D0A0909097D0D0A202012
:101C7000202020202020207370616E097B0D0A092E
:101C80000909636F6C6F723A6F72616E67653B0D25
:101C90000A0909097D0D0A090920666F726D207B0A
:101CA000200D0A0909096D617267696E3A203020BA
:101CB0006175746F3B200D0A0909097769647468BE
:101CC0003A32353070783B0D0A0909097D0D0A203A
:101CD00020202020203C2F7374796C653E0D0A2053
:101CE00020202020203C7469746C653E4C65642083
:101CF0007374617475733A3C2F7469746C653E0D2E
:101D00000A2020203C2F686561643E0D0A202020B7
:101D10003C626F64793E0D0A2020202020203C6424
:101D20006976207374796C653D226D617267696EA6
:101D30002D746F703A20353070783B223E0D0A20AA
:101D400020202020202020203C683120616C696701
:101D50006E3D2263656E74657222207374796C65C2
:101D60003D2022666F6E742D73697A653A38307043
:101D700078223E4C6564207374617475733A3C2F0D
:101D800068313E0D0A2020202020203C2F646976F7
:101D90003E0D0A2020202020203C646976207374A8
:101DA000796C653D2277696474683A203730253B49
:101DB000206D617267696E3A2030206175746F3BE7
:101DC000206D617267696E2D746F703A2031353005
:101DD00070783B223E0D0A20202020202020202049
:101DE0003C683120616C69676E3D2263656E746585
:101DF0007222207374796C653D22636F6C6F723A46
:101E0000677265656E223E0D0A202020202020206A
:101E10002020202020477265656E200D0A090909DF
:101E20003C7370616E3E4C4544206973203C2F73B7
:101E300070616E3E0D0A0909093C7370616E207372
:101E400074796C653D22636F6C6F723A72656420C1
:101E5000223E4F46463C2F7370616E3E0D0A202095
:101E6000202020202020203C2F68313E0D0A2020F9
:101E7000202020202020203C683120616C69676E82
:101E80003D2263656E74657222207374796C653DC2
:101E900022636F6C6F723A626C7565223E0D0A099F
:101EA0000909426C7565200D0A0909093C737061C6
:101EB0006E3E4C4544206973203C2F7370616E3E2A
:101EC0000D0A0909093C7370616E207374796C65A1
:101ED0003D22636F6C6F723A72656420223E4F46FA
:101EE000463C2F7370616E3E0D0A2020202020207A
:101EF0002020203C2F68313E0D0A09093C666F7294
:101F00006D206E616D653D22434749204578616DC6
:101F1000706C6522206D6574686F643D224745547E
:101F20002220616374696F6E3D22746573742E6341
:101F30006769223E0D0A2020202020202020093C15
:101F4000696E70757420747970653D22746578745B
:101F500022206E616D653D2274657874223E266E86
:101F60006273703B0D0A0920202020202020203C95
:101F7000696E70757420747970653D227375626D39
:101F8000697422206E616D653D227375626D69749E
:101F9000222076616C75653D225375626D697422ED
:101FA000203E0D0A09093C2F666F726D3E0D0A2016
:101FB00020202020203C2F6469763E0D0A2020201E
:101FC0003C2F626F64793E0D0A3C2F68746D6C3E45
:101FD0003C21444F43545950452068746D6C3E0D6C
:101FE0000A3C68746D6C3E0D0A2020203C686561D7
:101FF000643E0D0A2020202020203C7374796C65FB
:102000003E0D0A202020202020202020626F6479AD
:10201000207B0D0A0909096261636B67726F756E37
:10202000642D636F6C6F723A20626C61636B3B0D61
:102030000A0909097D0D0A202020202020202020C7
:102040006831097B0D0A090909636F6C6F723A6F79
:1020500072616E67653B0D0A090909666F6E742D22
:1020600066616D696C793A4C756369646120436F90
:102070006E736F6C653B0D0A0909097D0D0A2020FE
:10208000202020202020207370616E097B0D0A091A
:102090000909636F6C6F723A6F72616E67653B0D11
:1020A0000A0909097D0D0A090920666F726D207BF6
:1020B000200D0A0909096D617267696E3A203020A6
:1020C0006175746F3B200D0A0909097769647468AA
:1020D0003A32353070783B0D0A0909097D0D0A2026
:1020E00020202020203C2F7374796C653E0D0A203F
:1020F00020202020203C7469746C653E4C6564206F
:102100007374617475733A3C2F7469746C653E0D19
:102110000A2020203C2F686561643E0D0A202020A3
:102120003C626F64793E0D0A2020202020203C6410
:102130006976207374796C653D226D617267696E92
:102140002D746F703A20353070783B223E0D0A2096
:1021500020202020202020203C683120616C6967ED
:102160006E3D2263656E74657222207374796C65AE
:102170003D2022666F6E742D73697A653A3830702F
:1021800078223E4C6564207374617475733A3C2FF9
:1021900068313E0D0A2020202020203C2F646976E3
:1021A0003E0D0A2020202020203C64697620737494
:1021B000796C653D2277696474683A203730253B35
:1021C000206D617267696E3A2030206175746F3BD3
:1021D000206D617267696E2D746F703A20313530F1
:1021E00070783B223E0D0A20202020202020202035
:1021F0003C683120616C69676E3D2263656E746571
:102200007222207374796C653D22636F6C6F723A31
:10221000677265656E223E0D0A2020202020202056
:102220002020202020477265656E200D0A090909CB
:102230003C7370616E3E4C4544206973203C2F73A3
:1022400070616E3E0D0A0909093C7370616E20735E
:1022500074796C653D22636F6C6F723A6772656565
:102260006E223E4F4E3C2F7370616E3E0D0A202051
:10227000202020202020203C2F68313E0D0A2020E5
:10228000202020202020203C683120616C69676E6E
:102290003D2263656E74657222207374796C653DAE
:1022A00022636F6C6F723A626C7565223E0D0A098B
:1022B0000909426C7565200D0A0909093C737061B2
:1022C0006E3E4C4544206973203C2F7370616E3E16
:1022D0000D0A0909093C7370616E207374796C658D
:1022E0003D22636F6C6F723A72656420223E4F46E6
:1022F000463C2F7370616E3E0D0A20202020202066
:102300002020203C2F68313E0D0A09093C666F727F
:102310006D206E616D653D22434749204578616DB2
:10232000706C6522206D6574686F643D224745546A
:102330002220616374696F6E3D22746573742E632D
:102340006769223E0D0A2020202020202020093C01
:10235000696E70757420747970653D227465787447
:1023600022206E616D653D2274657874223E266E72
:102370006273703B0D0A0920202020202020203C81
:10238000696E70757420747970653D227375626D25
:10239000697422206E616D653D227375626D69748A
:1023A000222076616C75653D225375626D697422D9
:1023B000203E0D0A09093C2F666F726D3E0D0A2002
:1023C00020202020203C2F6469763E0D0A2020200A
:1023D0003C2F626F64793E0D0A3C2F68746D6C3E31
:1023E0003C21444F43545950452068746D6C3E0D58
:1023F0000A3C68746D6C3E0D0A2020203C686561C3
:10240000643E0D0A2020202020203C7374796C65E6
:102410003E0D0A202020202020202020626F647999
:10242000207B0D0A0909096261636B67726F756E23
:10243000642D636F6C6F723A20626C61636B3B0D4D
:102440000A0909097D0D0A202020202020202020B3
:102450006831097B0D0A090909636F6C6F723A6F65
:1024600072616E67653B0D0A090909666F6E742D0E
:1024700066616D696C793A4C756369646120436F7C
:102480006E736F6C653B0D0A0909097D0D0A2020EA
:10249000202020202020207370616E097B0D0A0906
:1024A0000909636F6C6F723A6F72616E67653B0DFD
:1024B0000A0909097D0D0A090920666F726D207BE2
:1024C000200D0A0909096D617267696E3A20302092
:1024D0006175746F3B200D0A090909776964746896
:1024E0003A32353070783B0D0A0909097D0D0A2012
:1024F00020202020203C2F7374796C653E0D0A202B
:1025000020202020203C7469746C653E4C6564205A
:102510007374617475733A3C2F7469746C653E0D05
:102520000A2020203C2F686561643E0D0A2020208F
:102530003C626F64793E0D0A2020202020203C64FC
:102540006976207374796C653D226D617267696E7E
:102550002D746F703A20353070783B223E0D0A2082
:1025600020202020202020203C683120616C6967D9
:102570006E3D2263656E74657222207374796C659A
:102580003D2022666F6E742D73697A653A3830701B
:1025900078223E4C6564207374617475733A3C2FE5
:1025A00068313E0D0A2020202020203C2F646976CF
:1025B0003E0D0A2020202020203C64697620737480
:1025C000796C653D2277696474683A203730253B21
:1025D000206D617267696E3A2030206175746F3BBF
:1025E000206D617267696E2D746F703A20313530DD
:1025F00070783B223E0D0A20202020202020202021
:102600003C683120616C69676E3D2263656E74655C
:102610007222207374796C653D22636F6C6F723A1D
:10262000677265656E223E0D0A2020202020202042
:102630002020202020477265656E200D0A090909B7
:102640003C7370616E3E4C4544206973203C2F738F
:1026500070616E3E0D0A0909093C7370616E20734A
:1026600074796C653D22636F6C6F723A6772656551
:102670006E223E4F4E3C2F7370616E3E0D0A20203D
:10268000202020202020203C2F68313E0D0A2020D1
:10269000202020202020203C683120616C69676E5A
:1026A0003D2263656E74657222207374796C653D9A
:1026B00022636F6C6F723A626C7565223E0D0A0977
:1026C0000909426C7565200D0A0909093C7370619E
:1026D0006E3E4C4544206973203C2F7370616E3E02
:1026E0000D0A0909093C7370616E207374796C6579
:1026F0003D22636F6C6F723A677265656E223E4F62
:102700004E3C2F7370616E3E0D0A20202020202049
:102710002020203C2F68313E0D0A09093C666F726B
:102720006D206E616D653D22434749204578616D9E
:10273000706C6522206D6574686F643D2247455456
:102740002220616374696F6E3D22746573742E6319
:102750006769223E0D0A2020202020202020093CED
:10276000696E70757420747970653D227465787433
:1027700022206E616D653D2274657874223E266E5E
:102780006273703B0D0A0920202020202020203C6D
:10279000696E70757420747970653D227375626D11
:1027A000697422206E616D653D227375626D697476
:1027B000222076616C75653D225375626D697422C5
:1027C000203E0D0A09093C2F666F726D3E0D0A20EE
:1027D00020202020203C2F6469763E0D0A202020F6
:1027E0003C2F626F64793E0D0A3C2F68746D6C3E1D
:1027F0003C21444F43545950452068746D6C3E0D44
:102800000A3C68746D6C3E0D0A2020203C686561AE
:10281000643E0D0A2020202020203C7374796C65D2
:102820003E0D0A202020202020202020626F647985
:10283000207B0D0A0909096261636B67726F756E0F
:10284000642D636F6C6F723A20626C61636B3B0D39
:102850000A0909097D0D0A2020202020202020209F
:102860006831097B0D0A090909636F6C6F723A6F51
:1028700072616E67653B0D0A090909666F6E742DFA
:1028800066616D696C793A4C756369646120436F68
:102890006E736F6C653B0D0A0909097D0D0A2020D6
:1028A000202020202020207370616E097B0D0A09F2
:1028B0000909636F6C6F723A6F72616E67653B0DE9
:1028C0000A0909097D0D0A090920666F726D207BCE
:1028D000200D0A0909096D617267696E3A2030207E
:1028E0006175746F3B200D0A090909776964746882
:1028F0003A32353070783B0D0A0909097D0D0A20FE
:1029000020202020203C2F7374796C653E0D0A2016
:1029100020202020203C7469746C653E4C65642046
:102920007374617475733A3C2F7469746C653E0DF1
:102930000A2020203C2F686561643E0D0A2020207B
:102940003C626F64793E0D0A2020202020203C64E8
:102950006976207374796C653D226D617267696E6A
:102960002D746F703A20353070783B223E0D0A206E
:1029700020202020202020203C683120616C6967C5
:102980006E3D2263656E74657222207374796C6586
:102990003D2022666F6E742D73697A653A38307007
:1029A00078223E4C6564207374617475733A3C2FD1
:1029B00068313E0D0A2020202020203C2F646976BB
:1029C0003E0D0A2020202020203C6469762073746C
:1029D000796C653D2277696474683A203730253B0D
:1029E000206D617267696E3A2030206175746F3BAB
:1029F000206D617267696E2D746F703A20313530C9
:102A000070783B223E0D0A2020202020202020200C
:102A10003C683120616C69676E3D2263656E746548
:102A20007222207374796C653D22636F6C6F723A09
:102A3000677265656E223E0D0A202020202020202E
:102A40002020202020477265656E200D0A090909A3
:102A50003C7370616E3E4C4544206973203C2F737B
:102A600070616E3E0D0A0909093C7370616E207336
:102A700074796C653D22636F6C6F723A7265642085
:102A8000223E4F46463C2F7370616E3E0D0A202059
:102A9000202020202020203C2F68313E0D0A2020BD
:102AA000202020202020203C683120616C69676E46
:102AB0003D2263656E74657222207374796C653D86
:102AC00022636F6C6F723A626C7565223E0D0A0963
:102AD0000909426C7565200D0A0909093C7370618A
:102AE0006E3E4C4544206973203C2F7370616E3EEE
:102AF0000D0A0909093C7370616E207374796C6565
:102B00003D22636F6C6F723A677265656E223E4F4D
:102B10004E3C2F7370616E3E0D0A20202020202035
:102B20002020203C2F68313E0D0A09093C666F7257
:102B30006D206E616D653D22434749204578616D8A
:102B4000706C6522206D6574686F643D2247455442
:102B50002220616374696F6E3D22746573742E6305
:102B60006769223E0D0A2020202020202020093CD9
:102B7000696E70757420747970653D22746578741F
:102B800022206E616D653D2274657874223E266E4A
:102B90006273703B0D0A0920202020202020203C59
:102BA000696E70757420747970653D227375626DFD
:102BB000697422206E616D653D227375626D697462
:102BC000222076616C75653D225375626D697422B1
:102BD000203E0D0A09093C2F666F726D3E0D0A20DA
:102BE00020202020203C2F6469763E0D0A202020E2
:102BF0003C2F626F64793E0D0A3C2F68746D6C3E09
:102C00003C21444F43545950452068746D6C3E0D2F
:102C10000A3C68746D6C3E0D0A2020203C6865619A
:102C2000643E0D0A2020202020203C7374796C65BE
:102C30003E0D0A202020202020202020626F647971
:102C4000207B0D0A0909096261636B67726F756EFB
:102C5000642D636F6C6F723A20626C61636B3B0D25
:102C60000A0909097D0D0A2020202020202020208B
:102C70006831097B0D0A090909636F6C6F723A6F3D
:102C800072616E67653B0D0A090909666F6E742DE6
:102C900066616D696C793A4C756369646120436F54
:102CA0006E736F6C653B0D0A0909097D0D0A2020C2
:102CB000202020202020207370616E097B0D0A09DE
:102CC0000909636F6C6F723A6F72616E67653B0DD5
:102CD0000A0909097D0D0A090920666F726D207BBA
:102CE000200D0A0909096D617267696E3A2030206A
:102CF0006175746F3B200D0A09090977696474686E
:102D00003A32353070783B0D0A0909097D0D0A20E9
:102D100020202020203C2F7374796C653E0D0A2002
:102D200020202020203C7469746C653E4C65642032
:102D30007374617475733A3C2F7469746C653E0DDD
:102D40000A2020202020203C6D6574612068747466
:102D5000702D65717569763D22726566726573685E
:102D60002220636F6E74656E743D22353B20555290
:102D70004C3D696E6465782E68746D6C223E0D0A58
:102D80002020203C2F686561643E0D0A2020203CF5
:102D9000626F64793E0D0A2020202020203C646967
:102DA00076207374796C653D2277696474683A2083
:102DB0003730253B206D617267696E3A20302061A3
:102DC00075746F3B206D617267696E2D746F703A18
:102DD0002031353070783B223E0D0A202020202003
:102DE000202020203C683120616C69676E3D2263A1
:102DF000656E746572223E0D0A090909576169748E
:102E00002061206D696E7574652E2E2E0D0A2020AE
:102E1000202020202020203C2F68313E0D0A202039
:102E2000202020203C2F6469763E0D0A2020203C83
:102E30002F626F64793E0D0A3C2F68746D6C3E0AF8
:102E40003C21444F43545950452068746D6C3E0DED
:102E50000A3C68746D6C3E0D0A2020203C68656158
:102E6000643E0D0A2020202020203C7374796C657C
:102E70003E0D0A202020202020202020626F64792F
:102E8000207B0D0A0909096261636B67726F756EB9
:102E9000642D636F6C6F723A20626C61636B3B0DE3
:102EA0000A0909097D0D0A20202020202020202049
:102EB0006831097B0D0A090909636F6C6F723A6FFB
:102EC00072616E67653B0D0A090909666F6E742DA4
:102ED00066616D696C793A4C756369646120436F12
:102EE0006E736F6C653B0D0A0909097D0D0A202080
:102EF000202020202020207370616E097B0D0A099C
:102F00000909636F6C6F723A6F72616E67653B0D92
:102F10000A0909097D0D0A090920666F726D207B77
:102F2000200D0A0909096D617267696E3A20302027
:102F30006175746F3B200D0A09090977696474682B
:102F40003A32353070783B0D0A0909097D0D0A20A7
:102F500020202020203C2F7374796C653E0D0A20C0
:102F600020202020203C7469746C653E496E666F99
:102F7000733A3C2F7469746C653E0D0A2020203C26
:102F80002F686561643E0D0A2020203C626F6479E1
:102F90003E0D0A2020202020203C64697620737496
:102FA000796C653D226D617267696E2D746F703A40
:102FB00020353070783B223E0D0A20202020202032
:102FC0002020203C683120616C69676E3D2263657A
:102FD0006E74657222207374796C653D2022666F71
:102FE0006E742D73697A653A38307078223E496E76
:102FF000666F733A3C2F68313E0D0A202020202056
:10300000203C2F6469763E0D0A2020202020203CA1
:10301000646976207374796C653D2277696474689D
:103020003A203730253B206D617267696E3A203057
:10303000206175746F3B206D617267696E2D746FCE
:10304000703A2031353070783B223E0D0A20202026
:103050002020202020203C683120616C69676E3D73
:103060002263656E746572223E0D0A2020202020A6
:10307000202020203C2F68313E0D0A09093C666F54
:10308000726D206E616D653D224347492045786130
:103090006D706C6522206D6574686F643D224745D4
:1030A000542220616374696F6E3D22746573742EBF
:1030B000636769223E0D0A2020202020202020095D
:1030C0003C696E70757420747970653D2274657802
:1030D0007422206E616D653D2274657874223E26EF
:1030E0006E6273703B0D0A092020202020202020D2
:1030F0003C696E70757420747970653D22737562D9
:103100006D697422206E616D653D227375626D6913
:1031100074222076616C75653D225375626D697409
:1031200022203E0D0A09093C2F666F726D3E0D0A82
:103130002020202020203C2F6469763E0D0A20208C
:10314000203C2F626F64793E0D0A3C2F68746D6CD1
:103150003E0000000002000409000A000100010016
:10316000004000000000020000000200000400080F
:103170000010040000000800000008000000080023
:10318000000010000020000100010002400080004B
:10319000010000000000080000000400000008001A
:1031A0000000080000000800000008000000020005
:1031B0000020000100010002400080000100020028
:1031C0000100020002000200020000000D000800E1
:1031D00008000900060007000000070007000700BC
:1031E0000700070007000500DDDDDDDDDCBBBBDD22
:1031F000DDDDDDDDDDDDDDDD988888888888888897
:1032000077777777778888888555555666666666B6
:103210006666666666688888833333322222222295
:10322000222222222228888D483200080000002015
:103230004C02000078060008803300084C02002091
:103240001C0C0000981A00080110174552524F52EA
:103250003A17617426770D0A68122B57494E443A83
:1032600034323A52585F4D474D543A122A33127D48
:1032700044415441122A34126C554E4B11281833D4
:10328000343A5769466920556E68616E646C6564AE
:10329000204576656E745B18182B732E7373696402
:1032A0007478743D54494D2D3232323636343939C2
:1032B00070491C082F106366673D776966695F7700
:1032C00070615F70736B5F746578742C71764237D0
:1032D000495133316463315849644B37464E5A354E
:1032E00036486C6D37080C10707269765F6D6F64CC
:1032F000652C321D3918BA3118680C69705F757306
:10330000655F646863701A7E6366756E3D2688101B
:103310006673643D2F696E6465782E68746D6C17F2
:10332000AA63178E2C313032331CFA611CA937483E
:10333000096367695F64656D6F1EBC35353839F99F
:103340001E0915720B17373871191B120A1809411B
:10335000542B532E53545325B12D0102030404154D
:1033600006070809AC6CDC02183914343801403AFD
:1033700048049A08045A0C08DA04182904192C0085
:04000005080000C12E
:00000001FF
